:020000040800F2
:10000000B80400200501000899140008B70F000883
:10001000331300082B090008D32500080000000056
:1000200000000000000000000000000017010008B0
:10003000B90A0008000000001B0100081D010008AB
:100040001F0100081F0100081F0100081F01000810
:100050001F0100081F0100081F0100081F01000800
:100060001F0100081F0100081F0100081F010008F0
:100070001F0100081F0100081F0100081F010008E0
:100080001F0100081F0100081F0100081F010008D0
:100090001F0100081F0100081F0100081F010008C0
:1000A0001F0100081F0100081F0100081F010008B0
:1000B0001F0100081F0100081F0100081F010008A0
:1000C0001F0100081F0100081F0100081F01000890
:1000D0001F010008E52300081F0100081F01000898
:1000E0001F0100081F0100081F010008DFF810D0E1
:1000F00000F0F2FB00480047132B0008AFF300802C
:10010000B80400200648804706480047FEE7FEE79F
:10011000FEE7FEE7FEE7FEE7FEE7FEE7FEE7FEE7B7
:10012000511C0008ED000008F0B480EA0102D40F71
:100130004200B2EB410F02D20246084611464A0085
:1001400042D0C30DDDB2C1F3C752AD1A202D35DA4E
:10015000C1F3160141F4000204B15242C5F1200678
:1001600002FA06F12A411044B3EBD05F23D0C4B1A8
:10017000012DA0EBC35009DCF0BC4FF0004202EAB5
:10018000C352DBB200F5000000F01ABB400000F1E2
:10019000807000EBC350A0F1807040EAD17049003C
:1001A00009E0490841EAC071A0EBC35000F5000026
:1001B000400800EBC350F0BC00F0F9BA61420122E4
:1001C00002EB4101001BF6E7F0BC704781F00041F3
:1001D000AAE780F00040A7E780EA010210B502F02C
:1001E0000043400022D04A001FD0010E01EB1261F3
:1001F000C0F35600C2F3560240F4000042F400027D
:10020000A0FB022000047F39140400D0401C50EAF7
:10021000124001D44000491EC2B20C0604EBD010BB
:10022000401C4008802A02D003E0002010BD20F0CE
:100230000100002900DA0020184310BD30B480EA24
:10024000010202F0004530F0004221F0004013D0DE
:1002500090B1C30DD40DC2F31601C0F31600E41A19
:1002600041F4000140F400027D34914201D3641C4A
:1002700000E04900002C02DA30BC002070474FF447
:1002800000000023914201D3891A034340084FEA3A
:100290004101F7D151B1914202D14FF0004105E047
:1002A00002D24FF0010101E06FF0010103EBC450F5
:1002B000284430BC00F07BBA2DE9FE4F804681EA2D
:1002C0000300C00F0C46009021F0004123F00045D0
:1002D000B8EB0200A94105D24046214690461C4693
:1002E0000B46024623F00040104347D0270DC7F3CA
:1002F0000A00C3F30A510290401A019040286BDAB9
:10030000C3F3130040F4801B0098924620B10023F1
:10031000D2EB030A63EB0B0B01985946C0F1400284
:10032000504600F013FA06460D4650465946019ACB
:1003300000F02BFA10EB08006141002487EA11520B
:1003400084EAE7731A4340D0009A62B3019A012A03
:100350004FEA075215DC001B61EB02014FF000422F
:1003600002EA0752CDE90042001C41F580113246F5
:100370002B4600F062FA03B0BDE8F08F40462146FC
:10038000F9E7001B61EB0201001C41F58013001826
:100390005B412018A2F5001747EB030140EAD57036
:1003A000B6196D4111E06D084FEA360645EAC07591
:1003B0004FEA0752001B61EB0201001C41F580115E
:1003C00049084FEA30000019514132462B4603B02C
:1003D000BDE8F04F00F022BA00980122400000234F
:1003E000D0EB020263EBE073009821464FEAE07421
:1003F000B8EB000061EB0401E9E783F000435BE741
:1004000081F0004158E72DE9FE4F81EA030404F032
:10041000004421F0004100944FF0000B23F0004312
:1004200050EA01045ED052EA03045BD0C3F30A54DD
:10043000C1F30A552C44A4F2F3340194A0FB0254F6
:10044000C1F3130141F48011C3F3130343F4801388
:1004500001FB024400FB034E840A970A44EA8154DC
:1004600047EA8357A4FB076802958D0A05FB0785B9
:100470004FEA932C04FB0C542705029D4FEA0658C3
:1004800047EA1637B5EB08056EEB070C870E920EA0
:1004900047EA811742EA8312A7FB0201B6EB0B0180
:1004A00064EB00042B0D43EA0C335E1844EB1C5044
:1004B000DA465146E7FB0201C5F313044FEA0B335A
:1004C00043EA14534FEA0432019C43EA0603A4F1C1
:1004D0000C040294009CCDE900B400F0AEF903B026
:1004E000BDE8F08F00200146F9E72DE9F04D81EAE3
:1004F000030404F0004B21F0004514464FF0000ABD
:1005000023F0004150EA050220D054EA01021DD038
:10051000C5F30A570246C5F31303C1F31300C1F331
:100520000A5640F4801543F48013A7EB0608101B0D
:10053000D64608F2FD3873EB050002D308F1010836
:1005400001E092185B41B8F1000F03DA0020014688
:10055000BDE8F08D00204FF48011064684460EE081
:10056000171B73EB050705D3121B63EB050306434B
:100570004CEA010C49084FEA300092185B4150EAFE
:100580000107EDD152EA030012D082EA040083EAA7
:100590000501084305D0101BAB4106D20122002300
:1005A00006E000224FF0004302E06FF0010253101A
:1005B0001AEB06004CEB085110EB0A0041EB0B0163
:1005C000BDE8F04D00F02AB9C10F80EAE0700844A0
:1005D000CA079623002100F0F3B8962300221146A3
:1005E00000F0EEB80EB5C10F80EAE0700844CA070B
:1005F000002140F233438DE80E000A460B4600F01E
:100600001CF903B000BD00F0004220F00040C10D15
:10061000C0F3160040F400007F2901DA0020704783
:10062000962903DCC1F19601C84001E09639884063
:10063000002AF4D04042704770B5C1F30A5201F06D
:1006400000450024C1F3130140F2FF3341F480114F
:100650009A4201DA002070BD40F233439A42A2F27E
:10066000334203DC524200F080F800E090402C431B
:10067000F1D0404270BDC1F30A5210B5C1F313016D
:1006800040F2FF3341F480119A4201DA002010BD9C
:1006900040F233439A42A2F2334203DC524200F06A
:1006A00064F810BD904010BD00F0004230F00040F2
:1006B0000AD0C10D01F56071C0F3160042EA015184
:1006C000C2084007114370470020014670470000F0
:1006D00030B5041E71F1000404DB4FF000444042C9
:1006E00064EB0101141E73F1000405DB1C464FF09E
:1006F0000043524263EB04038B4208BF824230BD89
:1007000001F0004330B421F0004150EA010206D06C
:100710000A0DA2F56072C1F31301002A02DC30BC9D
:1007200000207047440F44EAC104C100E01830BC07
:1007300000EBC25000F03BB8002801DBC0F10040E4
:10074000002901DBC1F1004188427047202A04DB07
:10075000203A00FA02F1002070479140C2F12003D4
:1007600020FA03F3194390407047202A04DB203A13
:1007700021FA02F00021704721FA02F3D040C2F1C1
:1007800020029140084319467047202A06DBCB1708
:10079000203A41FA02F043EAE07306E041FA02F33C
:1007A000D040C2F120029140084319467047002909
:1007B000A8BF7047401C490008BF20F001007047E7
:1007C00010B4B0FA80FC00FA0CF050EA010404BF47
:1007D00010BC704749B1CCF1200421FA04F411FA9D
:1007E0000CF118BF012121430843A3EB0C01CB1DE1
:1007F0004FEA00614FEA102042BF002010BC704752
:1008000000EBC35010440029A4BF10BC7047401C2B
:10081000490008BF20F0010010BC704710B5141E3D
:1008200073F1000408DA401C41F1000192185B41A9
:100830001A4301D120F0010010BD2DE9F04D924680
:100840009B4611B1B1FA81F202E0B0FA80F2203297
:100850009046FFF77BFF04460F4640EA0A0041EA54
:100860000B0153465A46084313D0114653EA010080
:1008700019D0C8F140025046FFF777FF05460E46F3
:10088000504659464246FFF761FF084305D0012014
:1008900004E020463946BDE8F08D0020054346EAD5
:1008A000E0762C4337430A986305E40AA0EB08007E
:1008B0000022FD0A44EA47540A3002D500200146CE
:1008C000E9E7010510196941DDE9084500196941A9
:1008D000BDE8F04DA2E70000064C074D06E0E068D9
:1008E00040F0010394E8070098471034AC42F6D377
:1008F000FFF700FCC8310008E831000870B521F0AE
:10090000004303430CD0C1F30A550024D5EB040582
:1009100064EB0403D617AD1AB34102DB0020014695
:1009200070BD201841EB025170BD00BFFEE7000012
:100930002DE9FC5F314A911E881E00F03EFB2F4AD4
:10094000921D911E881E00F06DFB2C49091FB1F904
:100950000400FFF747FE06460F462849091FB1F974
:100960000000FFF73FFE804632463B4601F0D0FFD5
:1009700004460022224BFFF746FD8246214A224BC5
:10098000FFF7B3FDCDE90001FFF7BAFE1F4908608C
:100990001A48001FB0F90840E11704EB1171081163
:1009A000FFF712FE1A4908600846016817480068F8
:1009B00002F093F810B9164802F09FF81448016845
:1009C0001248006800F046F91249086001230F48F8
:1009D00019460268184600F007FF01230C48194623
:1009E0000268022000F000FF01230A48194602684D
:1009F000032000F0F9FEBDE8FC9F0000AC000020E1
:100A00000000594044174154FB2109406400002074
:100A100068000020600000202DE9F8430024002732
:100A2000A0460025002600F007F91949086000F0EB
:100A3000F5F8184908601848B0F908000090174800
:100A4000036817480268174801681748006800F0F3
:100A500057FF04460F4803680D48026813480168B1
:100A60001348006800F080FF07460B48B0F90A10F1
:100A70001048006800F068FF804625462646284654
:100A800000F0D6FC304600F0EDFCBDE8F883000035
:100A90008400002088000020A800002074000020AE
:100AA00060000020700000206C0000207C0000200E
:100AB0007800002080000020704700B5034603E066
:100AC0004FF47A7000F005F8181EA3F10103F7D176
:100AD00000BD00EBC001C9004FF0E02251610021D0
:100AE00091610521116100BF4FF0E021096901F416
:100AF00080310029F8D004214FF0E02211617047C5
:100B000000B587B00121042000F0B4FF04208DF867
:100B10001B00C020ADF8180003208DF81A0006A9AC
:100B2000174800F0ABF90121022000F093FF0020EC
:100B3000ADF81200ADF80E004FF6FF70ADF81000E2
:100B40000020ADF80C008DF8140003A90D4801F049
:100B50009BFB00231A4603210A4801F02DFA684640
:100B600001F0A4FA0A20ADF808006946054801F032
:100B700047FA0121034801F013FA07B000BD000055
:100B8000000801400004004000B587B001210420A6
:100B900000F070FF04208DF81B004FF41060ADF8DA
:100BA000180003208DF81A0006A9174800F066F90E
:100BB0000121C80200F05EFF0020ADF81200ADF880
:100BC0000E004FF6FF70ADF810000020ADF80C00DD
:100BD0008DF8140003A90D4801F056FB00231A46B6
:100BE00003210A4801F0E8F9684601F05FFA0A209B
:100BF000ADF808006946054801F002FA01210348F2
:100C000001F0CEF907B000BD00080140002C014002
:100C100010B5FFF775FFFFF7B7FF10BD10B5002443
:100C2000044801F0EAF904460021024801F0FEFA06
:100C3000204610BD002C014010B50024044801F0EE
:100C4000DCF904460021024801F0F0FA204610BD0C
:100C5000000400402DE9F04105460C467748016844
:100C60002046FFF7B3FA0746754801683846FFF794
:100C7000B3FA0646734801683046FFF755FA7149E2
:100C800008607148416871480068FFF79FFA06469E
:100C90006D4881683046FFF799FA6D4908606A48E7
:100CA000C06880F0004048606748C06880F000403D
:100CB000886068480068C860086861490968FFF78B
:100CC0008BFA0646604801683046FFF72DFA5E4908
:100CD00008605F4948685A490968FFF77DFA064687
:100CE000594841683046FFF71FFA5749486058494C
:100CF000886853490968FFF76FFA064652488168C9
:100D00003046FFF711FA504988605149C8684C498C
:100D10000968FFF761FA06464B48C1683046FFF79D
:100D200003FA4949C860474801682846FFF74EFA68
:100D3000494908604448006848490860424880685A
:100D4000474908604548016846480068FFF7ECF9E4
:100D5000454908600846016840480068FFF76EFA98
:100D600042490860404801683D480068FFF766FA5C
:100D70003F490860394801683C480068FFF72CFA91
:100D80000646314801683046FFF723FA2E490860CD
:100D90000846416835480068FFF71EFA06462A48AB
:100DA00041683046FFF715FA274948602B4801682B
:100DB0002F480068FFF710FA06462348816830463E
:100DC000FFF707FA2049886008464168284800680C
:100DD000FFF702FA06461C48C1683046FFF7F9F9EA
:100DE0001949C8601C48016820480068FFF7F4F9F9
:100DF0000646144801683046FFF796F91149086025
:100E0000154801681A480068FFF7E6F906460B48DE
:100E100001683046FFF788F908490860084601680C
:100E20002046FFF7D3F913490860064800681249C5
:100E3000086008460068BDE8F0810000200000203E
:100E4000400000201C00002024000020340000206E
:100E500098000020380000205C000020480000209E
:100E60004C0000203C0000205000002054000020D6
:100E70005800002044000020180000202DE9F04117
:100E8000024600250026002000230024002791F8B8
:100E900003C00CF00F0591F803C00CF0100CBCF16E
:100EA000000F03D091F802C04CEA050591F800C08C
:100EB000BCF1000F31D0146800202BE04FF0010C82
:100EC0000CFA00F3B1F800C00CEA03069E4220D1F0
:100ED00083004FF00F0C0CFA03F7BC4305FA03FC38
:100EE0004CEA040491F803C0BCF1280F06D14FF07E
:100EF000010C0CFA00FCC2F814C00AE091F803C01F
:100F0000BCF1480F05D14FF0010C0CFA00FCC2F8FF
:100F100010C0401C0828D1D31460B1F800C0BCF147
:100F2000FF0F34DD546800202EE000F1080C4FF074
:100F3000010808FA0CF3B1F800C00CEA03069E425F
:100F400021D183004FF00F0C0CFA03F7BC4305FAD4
:100F500003FC4CEA040491F803C0BCF1280F05D14E
:100F600000F1080C08FA0CF8C2F8148091F803C0DC
:100F7000BCF1480F07D100F1080C4FF0010808FA46
:100F80000CF8C2F81080401C0828CED35460BDE88D
:100F9000F0810246002093680B400BB1012000E075
:100FA0000020704741617047016170470AB10161DB
:100FB00000E04161704700BFFEE77CB506460C4685
:100FC000154601A93B2000F044F969463C2000F099
:100FD00040F99DF800009DF8041040EA012000B29D
:100FE000308001A93D2000F034F969463E2000F030
:100FF00030F99DF800009DF8041040EA012000B28D
:10100000208001A93F2000F024F96946402000F02B
:1010100020F99DF800009DF8041040EA012000B27C
:1010200028807CBD7CB506460C46154601A94320A8
:1010300000F00FF96946442000F00BF99DF800001C
:101040009DF8041040EA012000B2308001A945203B
:1010500000F0FFF86946462000F0FBF89DF800001C
:101060009DF8041040EA012000B2208001A9472029
:1010700000F0EFF86946482000F0EBF89DF800001A
:101080009DF8041040EA012000B228807CBD0000D9
:1010900008B50121082000F0EDFC14208DF80300B4
:1010A0004FF44060ADF8000003208DF8020069465F
:1010B0000448FFF7E3FE4FF440610248FFF774FF76
:1010C00008BD0000000C014010B54FF40061044859
:1010D000FFF75FFF04460A20FFF7FBFC204610BD28
:1010E000000C014010B5012000F06EF8012000F066
:1010F0005DF8FFF7E9FF0446002000F057F82046AE
:1011000010BD70B50025012000F05EF800240EE04F
:10111000012000F04BF8FFF7D7FF012802D1802013
:1011200020410543002000F041F8601CC4B2082CA7
:10113000EEDB284670BD10B50446204600F044F8AA
:10114000012000F033F8002000F030F810BD70B539
:10115000054600240DE08021214101EA050000F050
:1011600033F8012000F022F8002000F01FF8601C86
:10117000C4B2082CEFDB70BD10B5012000F024F8DC
:10118000012000F013F8002000F01EF8002000F00D
:101190000DF810BD10B5002000F016F8012000F089
:1011A00005F8012000F010F810BD000010B504464D
:1011B00022464FF480610348FFF7F8FE0A20FFF74C
:1011C00088FC10BD000C014010B5044622464FF4C7
:1011D00000610348FFF7EAFE0A20FFF77AFC10BD22
:1011E000000C014008B5FFF753FF80216B2000F091
:1011F00089F84FF49670FFF760FC00216B2000F037
:1012000081F818211B2000F07DF818211C2000F027
:1012100079F80021382000F075F800216A2000F0EC
:1012200071F80021232000F06DF86946752000F068
:1012300010F89DF8000068280AD101216B2000F009
:1012400061F8642000F024F800216C2000F05AF8C6
:1012500008BD70B505460C46FFF78EFFD020FFF79E
:1012600076FFFFF73FFF2846FFF771FFFFF73AFFD2
:10127000FFF782FFD120FFF76AFFFFF733FFFFF789
:1012800040FF20700120FFF756FFFFF783FF70BD7E
:1012900070B504460025042C00DA0424B4F57A7FE6
:1012A00001DD4FF47A744FF47A7090FBF4F0401E35
:1012B00085B2E9B2192000F025F8204600F001F8C7
:1012C00070BD70B50446204604EBD071C1F34F04E5
:1012D000BC2C01DD012510E0622C01DD02250CE0B3
:1012E0002A2C01DD032508E0142C01DD042504E08F
:1012F0000A2C01DD052500E00625E9B21A2000F0E0
:1013000001F870BD70B505460C46FFF735FFD020DB
:10131000FFF71DFFFFF7E6FE2846FFF718FFFFF770
:10132000E1FE2046FFF713FFFFF7DCFEFFF732FF79
:1013300070BD00BFFEE7000010B5044624B1012CCB
:101340000BD0022C1BD111E010210E48FFF72AFE12
:1013500020210C48FFF728FE11E010210948FFF773
:1013600023FE20210748FFF71DFE08E01021054855
:10137000FFF71AFE20210348FFF716FE00BF00BF4B
:1013800010BD00000008014010B5044624B1012C36
:101390000BD0022C1BD111E080210E48FFF702FE7A
:1013A00040210C48FFF700FE11E080210948FFF7BB
:1013B000FBFD40210748FFF7F5FD08E04021054807
:1013C000FFF7F2FD80210348FFF7EEFD00BF00BFED
:1013D00010BD0000000C014008B50121042000F000
:1013E00049FB10208DF803003020ADF800000320E9
:1013F0008DF8020069460248FFF740FD08BD000075
:101400000008014008B50121082000F033FB10203E
:101410008DF80300C020ADF8000003208DF8020015
:1014200069460248FFF72AFD08BD0000000C014094
:1014300001B50098002803DD0020FFF77DFF0CE0D8
:101440000098002806DA0120FFF776FF684601F0D1
:1014500059FB02E00220FFF76FFF009988B200F00D
:10146000F1FA08BD01B50098002803DD0020FFF760
:101470008BFF0CE00098002806DA0120FFF784FFBC
:10148000684601F03FFB02E00220FFF77DFF009974
:1014900088B200F0CFFA08BD7047000070B5002197
:1014A00000230F22C47804B3154C246804F4E064CC
:1014B000C4F5E064210AC1F10403CA40447804FA87
:1014C00003F184781440214309010E4C0678A1559C
:1014D000047804F01F050124AC4005786D11AD00BF
:1014E00005F1E025C5F8004109E0047804F01F0586
:1014F0000124AC40044D0678761145F8264070BDB5
:101500000CED00E000E400E080E100E0024901436E
:10151000024A1160704700000000FA050CED00E07F
:1015200070B500240EE00021204600F0F0F8002500
:1015300004E0002000F0D4F9681CC5B2802DF8DB6F
:10154000601CC4B2082CEEDB70BD000008B50121A0
:10155000082000F08FFA14208DF8030003208DF886
:1015600002004FF48070ADF8000069460A48FFF7AA
:1015700085FC4FF40070ADF8000069460648FFF79F
:101580007DFC012211020448FFF710FD01225102E7
:101590000148FFF70BFD08BD000C014070B5054682
:1015A000002415E08020204100EA05024FF400717C
:1015B0000E48FFF7FBFC012211020C48FFF7F6FC76
:1015C00000224FF480710948FFF7F0FC601CC4B2A0
:1015D000082CE7DB012211020448FFF7E7FC002298
:1015E0004FF480710148FFF7E1FC70BD000C014031
:1015F00010B5012251020A48FFF7D8FC012211025E
:101600000748FFF7D3FC00224FF400710448FFF7AE
:10161000CDFC00224FF480710148FFF7C7FC10BDDC
:10162000000C014010B500224FF400710648FFF78E
:10163000BDFC012211020448FFF7B8FC012251024F
:101640000148FFF7B3FC10BD000C014070B5002449
:1016500006E0002500E06D1CB5F57A7FFBD3641C25
:10166000B4F57A7FF5D3FFF771FFAE2000F028F9CB
:10167000D52000F025F9802000F022F9A82000F004
:101680001FF93F2000F01CF9D32000F019F90020C9
:1016900000F016F9402000F013F9A12000F010F935
:1016A000C82000F00DF9DA2000F00AF9122000F04D
:1016B00007F9812000F004F9CF2000F001F9D920CA
:1016C00000F0FEF8F12000F0FBF8DB2000F0F8F865
:1016D000302000F0F5F8A42000F0F2F8A62000F089
:1016E000EFF88D2000F0ECF8142000F0E9F8AF20BE
:1016F00000F0E6F8FFF714FF70BD10B502460120B8
:1017000000E050430B1EA1F10101FAD110BD70B5EC
:1017100005460C4645F0B00000F0D2F8102141EA31
:10172000141000F0CDF804F00F0000F0C9F870BDFF
:101730002DE9F04105460E461746721ED206110EDF
:101740006A1E5206100EFFF7E2FF002409E0A7F11F
:101750002001134A02EB0111085D00F0C1F8601C82
:10176000C4B2082CF3DB721ED206110E6A1E0123CE
:1017700003EB4202D0B2FFF7CAFF00240BE0A7F14F
:101780002001074A02EB011204F10801505C00F04D
:10179000A7F8601CC4B2082CF1DBBDE8F0810000A2
:1017A000322B00082DE9F04780460E4617461D46AD
:1017B000002415E0281B411E0A20FFF79EFFB7FBFF
:1017C000F0F00A21B0FBF1F201FB120000F1300948
:1017D0003019C1B24A464046FFF7AAFF601CC4B2A6
:1017E000AC42E7DBBDE8F0872DE9FF4F89B00E463C
:1017F00017469A464FF0000800213846FEF79CFF36
:1018000005D82B2231460998FFF792FF06E02D22DA
:1018100031460998FFF78CFF87F000473846FEF7FE
:10182000F2FE04462046FEF7CFFE39460790FEF74B
:10183000D0FC814625462C1E02D14FF0010809E05C
:1018400006E00A2095FBF0F508F1010000F0FF0822
:10185000002DF6D1701CC1B2434622460998FFF70D
:10186000A1FF06EB0800401CC1B22E220998FFF729
:101870005FFF51460A20FFF740FF0190FEF7ADFEE3
:1018800049460290FEF7A8FC0390FEF70DFF0022E8
:101890000A4BCDE90401FEF70FFDCDE90601FEF785
:1018A000EAFE834606EB0800801CC1B253465A4646
:1018B0000998FFF777FF0DB0BDE8F08F0000E03F1B
:1018C00010B50446FFF794FE7820FFF767FE00206E
:1018D000FFF764FE2046FFF761FEFFF7A3FE10BD91
:1018E00010B50446FFF784FE7820FFF757FE40202E
:1018F000FFF754FE2046FFF751FEFFF793FE10BDA1
:101900002DE9FC5F06460F4614461D46DDF8308083
:101910004FF0000929462046FEF758FC8146404614
:10192000FEF752FE39460090FEF756FC83464946C4
:101930003046FEF751FC59460190FEF7F5FB824612
:10194000FEF761FEBDE8FC9F2DE9F04104460D461F
:101950002846FEF739FE07462146FEF73DFC0646BF
:10196000FEF751FEBDE8F0812DE9FF4F85B0054639
:1019700016469946002406EB090004462046FEF769
:1019800031FE0746254A264BFEF73DFDCDE9020113
:1019900024480068FEF726FE0746204A921C224B88
:1019A000FEF731FDCDE90001DDE90223FEF784FCFD
:1019B0008246FEF741FE04461A4804601B48006850
:1019C00020441A49086008460068B0F57A7F03DDB4
:1019D0004FF47A70086007E01448006810F57A7FC9
:1019E00002DA13481149086010480068FEF7ECFD60
:1019F00083460699FEF7F0FB80462046FEF7E4FD9D
:101A000083462946FEF7E8FB82464146FEF78CFBFB
:101A10000746FEF7F8FD09B0BDE8F08F989999994F
:101A20009999C93F900000209999E93F8C000020C6
:101A300018FCFFFF10B5044621464FF0804000F02F
:101A4000F1FB10BD10B5044621464FF0804000F078
:101A5000EBFB10BD29B1064AD2690243044BDA619F
:101A600004E0034AD2698243014BDA617047000007
:101A70000010024029B1064A92690243044B9A6160
:101A800004E0034A92698243014B9A617047000067
:101A90000010024030B500210022002400232D4D0B
:101AA0006D6805F00C0121B1042905D0082923D166
:101AB00005E0294D056022E0274D05601FE0254D1A
:101AC0006D6805F47012234D6D6805F480340225AD
:101AD00005EB92421CB9214D554305600BE01D4DAD
:101AE0006D6805F400351DB11C4D5543056002E0DD
:101AF000194D5543056002E0174D056000BF00BF5A
:101B0000144D6D6805F0F0010909154D6B5C056811
:101B1000DD4045600F4D6D6805F4E061090A104D28
:101B20006B5C4568DD4085600A4D6D6805F4605169
:101B3000C90A0B4D6B5C4568DD40C560054D6D689D
:101B400005F44041890B074D6B5CC568B5FBF3F5A7
:101B5000056130BD0010024000127A0000093D000E
:101B6000000000201000002010B500F001F810BDAA
:101B70000CB50020019000903348006840F480309C
:101B80003149086000BF3048006800F40030009020
:101B90000198401C0190009818B90198B0F5A06F09
:101BA000F1D12948006800F4003010B10120009004
:101BB00001E0002000900098012843D123480068EC
:101BC00040F01000214908600846006820F003003A
:101BD00008600846006840F0020008601A48406843
:101BE000194948600846406848600846406840F423
:101BF000806048600846406820F47C1048600846D1
:101C0000406840F4E81048600846006840F0807082
:101C1000086000BF0C48006800F000700028F9D090
:101C20000948406820F003000749486008464068BA
:101C300040F00200486000BF0348406800F00C001C
:101C40000828F9D10CBD000000100240002002401D
:101C500010B51348006840F00100114908600846BB
:101C60004068104908400E494860084600680E491F
:101C700008400B4908600846006820F4802008608E
:101C80000846406820F4FE0048604FF41F0088605A
:101C9000FFF76AFF4FF000600449086010BD0000C4
:101CA000001002400000FFF8FFFFF6FE08ED00E024
:101CB00010B500F025F9FFF78FFBFFF7A3FB10BD70
:101CC000F0B50C46154600220021068C4FF6FE7733
:101CD0003E400684028B018C4FF60C7632407E1C0F
:101CE00006EA03162E433243104EB0420ED0104E79
:101CF000B0420BD0B0F1804F08D00E4EB04205D0AC
:101D00000D4EB04202D00D4EB04206D14FF6FD76D8
:101D1000314044F00106314305E04FF6F57631409D
:101D200044F00106314302830184F0BD002C0140E0
:101D3000003401400004004000080040000C004056
:101D4000F0B50C461546002200210026078C4FF600
:101D5000EF7C07EA0C070784028B018C4FF6FF77B4
:101D600007EA041640F6FF473A404FF6FF7707EAC6
:101D700003373A434FF6FF7707EA05273A43114FF7
:101D8000B8420ED0104FB8420BD0B0F1804F08D0FF
:101D90000E4FB84205D00E4FB84202D00D4FB84298
:101DA00006D14FF6DF77394046F01007394305E09A
:101DB0004FF65F77394044F01007394302830184BE
:101DC000F0BD0000002C0140003401400004004040
:101DD00000080040000C0040F0B50C4615460022FB
:101DE00000210026078C4FF6FF6C07EA0C070784DA
:101DF000828B018C4FF6FF7707EA04264FF60C77AB
:101E00003A404FF6FF7707EA03172F433A43114F43
:101E1000B8420ED0104FB8420BD0B0F1804F08D06E
:101E20000E4FB84205D00E4FB84202D00D4FB84207
:101E300006D14FF6FF57394046F48077394305E025
:101E40004FF2FF57394044F480773943828301844D
:101E5000F0BD0000002C01400034014000040040AF
:101E600000080040000C0040F0B50C46154600226A
:101E700000210026078C4EF6FF7C07EA0C0707843A
:101E8000828B018C4FF6FF7707EA043640F6FF4756
:101E90003A404FF6FF7707EA05273A434FF6FF77B8
:101EA00007EA03373A43114FB8420ED0104FB842F9
:101EB0000BD0B0F1804F08D00E4FB84205D00E4F76
:101EC000B84202D00D4FB84206D14DF6FF773940E7
:101ED00046F48057394305E047F6FF57394044F44C
:101EE0008057394382830184F0BD0000002C0140FB
:101EF000003401400004004000080040000C004095
:101F000000B589B001210846FFF7A4FD0121042096
:101F1000FFF7B0FD18208DF823000620ADF8200053
:101F200003208DF8220008A91C48FEF7A7FF4FF0F8
:101F3000804000F0C4F80020ADF81A00ADF816009B
:101F400041F61F40ADF818000020ADF814008DF8E0
:101F50001C0005A94FF0804000F096F901A800F0A0
:101F600057F96020ADF804000020ADF80C00012006
:101F7000ADF806000020ADF80A0001A94FF080403E
:101F800000F0F6F801A94FF0804000F09FF8012121
:101F9000880700F005F809B000BD00000008014006
:101FA00021B1028842F00102028004E002884FF66B
:101FB000FE731A4002807047F0B50C4615461E4667
:101FC0000021002200230189028B038C4FF6F87751
:101FD000394021434FF6FC473A4040F201173A435B
:101FE0004FF6DD773B404FF6FF7707EA06172F43A2
:101FF0003B43018102830384F0BD0146888C704716
:1020000070B505460C46244885420ED023488542CB
:102010000BD0B5F1804F08D02148854205D021482A
:10202000854202D02048854200D100E000BF2088D0
:1020300050B92389A28861882846FFF741FEE188CC
:10204000284600F0F5F825E0208804280AD12389E5
:10205000A28861882846FFF773FEE188284600F0D1
:10206000F0F817E0208808280AD12389A28861881F
:102070002846FFF7B1FEE188284600F0EFF809E0B6
:102080002389A28861882846FFF7EEFEE18828466A
:1020900000F0EDF870BD0000002C0140003401405C
:1020A0000004004000080040000C004000210180B6
:1020B0004180012181800021C18001817047018917
:1020C0004FF6F872114001817047000070B500248E
:1020D00000220023058C4FF6EF7635400584028CF4
:1020E0008388048B48F6FF752C404FF6FF452C4043
:1020F0000D884FF6FF7606EA05252C434FF6DF756F
:102100002A400D8906EA05152A434D8806EA051579
:102110002A43154DA84202D0144DA8421DD14FF6B6
:102120007F752A404D894FF6FF7606EA05152A434A
:102130004FF6BF752A408D8806EA05152A434FF6EB
:10214000FF352B404FF2FF752B408D8906EA850540
:102150002B43CD8906EA85052B4383800483CD88F4
:102160000587028470BD0000002C0140003401404E
:1021700070B5002400220023058C4FF6FF66354021
:102180000584028C8388848B4FF68F752C404FF624
:10219000FC752C400D882C434FF6FF552A400D89C5
:1021A0004FF6FF7606EA05252A434D8806EA0525FF
:1021B0002A43154DA84202D0144DA8421DD14FF21A
:1021C000FF752A404D894FF6FF7606EA05252A431A
:1021D0004FF6FF352A408D8806EA05252A434EF63C
:1021E000FF752B404DF6FF752B408D8906EA0515CE
:1021F0002B43CD8906EA05152B4383808483CD8844
:102200008587028470BD0000002C0140003401402D
:102210000021018041808180C180018141818181D3
:10222000C1817047018770478187704781847047FB
:10223000028B4FF6F3731A400283028B0A43028328
:102240007047028B4FF2FF331A400283028B4FF626
:10225000FF7303EA01231A4302837047828B4FF610
:10226000F3731A408283828B0A4382837047828B86
:102270004FF2FF331A408283828B4FF6FF7303EADB
:1022800001231A4382837047002202881D4B984223
:102290000ED01D4B98420BD0B0F1804F08D01B4B95
:1022A000984205D01A4B984202D01A4B984204D15A
:1022B0004FF68F731A404B881A43174B984207D03A
:1022C000164B984204D04FF6FF431A40CB881A436E
:1022D00002808B8883850B8803850A4B98420BD03C
:1022E000094B984208D00E4B984205D00D4B9842AE
:1022F00002D00D4B984201D10B7A038601238382D1
:1023000070470000002C01400034014000040040F0
:1023100000080040000C0040001000400014004085
:1023200000400140004401400048014000B587B032
:1023300001218803FFF79EFB01210420FFF79AFB90
:1023400018208DF81B004FF40070ADF81800032022
:102350008DF81A0006A92148FEF790FD48208DF857
:102360001B004FF48060ADF8180003208DF81A00B0
:1023700006A91A48FEF782FD4FF41650029000207D
:10238000ADF814000C20ADF812000020ADF81000DC
:10239000ADF80E00ADF80C0002A9114800F0A8F845
:1023A000012240F225510E4800F07DF84FF4A06064
:1023B000FFF7ACF825208DF8040001208DF8070008
:1023C0008DF805008DF8060001A8FFF767F80121D8
:1023D000034800F032F807B000BD000000080140DB
:1023E0000038014010B540F22551094800F031F89D
:1023F00001280CD1064800F0E7F8064908700120D2
:102400000549087040F22551014800F007F810BD59
:1024100000380140140000201500002010B50022F3
:10242000002340F66A14A14200D100BF0A12012421
:102430009440A3B2DC43048010BD21B1828942F4F0
:102440000052828104E082894DF6FF731A40828136
:10245000704770B50246002400230025002040F696
:102460006A16B14200D100BFC1F3421501F01F034B
:10247000012606FA03F3012D02D19689334006E0C6
:10248000022D02D1168A334001E0968A33400C12A5
:10249000012606FA04F41688344013B10CB1012069
:1024A00000E0002070BDF0B50346002400260025A2
:1024B000002040F66A17B94200D100BF1846C1F3A8
:1024C000421401F01F06012707FA06F5012C01D17D
:1024D0000C3004E0022C01D1103000E014301AB1AD
:1024E00007682F43076002E00768AF430760F0BD4D
:1024F0002DE9F04786B005460E460024A24600BFEF
:10250000A1460027B08900B100BF2F462C8A4CF6A7
:10251000FF700440F08804432C82AC894EF6F3101F
:102520000440B08831890843718908430443AC8171
:10253000AC8A4FF6FF400440B0890443AC8201A846
:10254000FFF7A8FA1F48874202D1DDF810A001E08A
:10255000DDF80CA0A88900F4004040B10AEBCA00E5
:1025600000EB0A1031684900B0FBF1F807E00AEB14
:10257000CA0000EB0A1031688900B0FBF1F8642052
:10258000B8FBF0F004012009642101FB1089A8893F
:1025900000F4004040B1322000EBC900B0FBF1F084
:1025A00000F00700044308E0322000EB091064212A
:1025B000B0FBF1F000F00F0004432C8106B0BDE841
:1025C000F08700000038014001468888C0F3080009
:1025D000704700BFFEE7490050EAC12018BF042041
:1025E0004A0D18BF40F0010040F2FF72B2EB515F9C
:1025F00008BF40F00200012808BF052070472DE900
:10260000F0414F1E00EBC7010446D1E90001154619
:102610001E4637F006020DD02A463346FDF7F3FE7C
:102620007F1E04EBC703D3E90023FDF745FE37F017
:102630000602F1D1022F25D0042F13D0062F18BF88
:10264000BDE8F0812A463346FDF7DDFED4E90A23D2
:10265000FDF732FE2A463346FDF7D5FED4E90823BE
:10266000FDF72AFE2A463346FDF7CDFED4E90623C0
:10267000FDF722FE2A463346FDF7C5FED4E90423C2
:10268000FDF71AFE2A463346FDF7BDFED4E90223C4
:10269000FDF712FE2A463346FDF7B5FED4E90023C6
:1026A000BDE8F041FDF708BE0122FEF727B9FDF7AE
:1026B00003BE0000024A00201107FEF71FB9000008
:1026C00001FDFFFF02E008C8121F08C1002AFAD16D
:1026D00070477047002001E001C1121F002AFBD1A2
:1026E0007047000001490860704700009400002016
:1026F0002DE9F84F04460D4621F000400091734942
:10270000814211DC7249884201DC06D12CB120469D
:102710002946BDE8F84FFFF7C7BF6E48002DCCBF74
:102720006D496E49BDE8F88F6D49814211DD6D49F3
:102730008142D8BF4FF0FF366DDD20462946FFF7B6
:102740004AFF042808BFFFF7B5FF20462946BDE829
:10275000F88F6549654F25F00045814233DD6449B6
:10276000814219DD002632464FF08043204629463B
:10277000FDF7A2FD80468A46012220462946FEF743
:10278000BDF800223B46FDF738FE42465346FDF7B2
:10279000ACFE04460D463EE001260022BA463B460A
:1027A00020462946FDF788FD80460F460022534605
:1027B00020462946FDF721FE42463B46FDF795FEA1
:1027C00004460D4627E04B4981421BDDDFF828A176
:1027D00002260022534620462946FDF714FE002219
:1027E0003B46FDF769FD80460F46002253462046D2
:1027F0002946FDF702FE42463B46FDF776FE0446BB
:102800000D4608E0032622462B4600203B49FDF7F3
:102810006CFE04460D4622462B4610461946FDF72F
:10282000F2FD8B46824602460B46FDF7ECFD07465D
:102830000246334888460B4606217844FFF7DFFE00
:1028400052465B46FDF7DFFD82462E488B463A46F0
:10285000434605217844FFF7D2FE3A464346FDF74A
:10286000D2FD02460B46002E504659460CDAFDF7C3
:1028700023FD22462B46FDF7C6FD01B022462B461E
:10288000BDE8F04FFDF7BCBDFDF716FD22462B4617
:10289000FDF7B9FD1C4A7A4402EBC603D3E90023D5
:1028A000FDF7ABFD22462B46FDF7A7FD174A7A44FC
:1028B00002EBC603D3E90023FDF7A2FD009A002A2C
:1028C000B8BF81F00041BDE8F88F0000000010445F
:1028D0000000F07F182D4454FB21F93FFB21F9BF84
:1028E0000000DC3F0000203E0000F33F0000F03F0E
:1028F0000000E63F008003400000F83F0000F0BF0A
:102900005209000010090000AE080000760800001F
:102910002DE9F04D9446CCF1000423F000464CEA3A
:102920000404594F46EAD4749A46884621F000427E
:10293000BC4206D8454240EA050442EAD474BC428F
:1029400004D9BDE8F04D6246FFF7B1BEAAF140558B
:10295000A5F17F6555EA0C040BD0022404EAAA74A1
:102960004A4DDFF82CE144EAD87452EA000B04D057
:102970000CE0BDE8F04DFFF7BBBE002C14BF012CEE
:10298000BDE8F08D022C30D0032C32D056EA0C0B6F
:102990000AD0BE4220D1BA4209D126F0804622F0A8
:1029A00080423346114617E000291ADB25E0DFF8A4
:1029B000E4B0FB44002C04BFDBE90001BDE8F08D6E
:1029C000012C02BFDBE9000181F00041BDE8F08D80
:1029D000022C0AD0032C0CD0BA4212D1B8F1000F4D
:1029E0000BDA2A482C49BDE8F08D28462B49BDE872
:1029F000F08D28467146BDE8F08D24482849BDE891
:102A0000F08D921B12153C2AC4BF204F244E10DCBF
:102A1000BAF1000FBEBF12F13C0F00273E4608DBA3
:102A20006246FDF762FD21F00041FFF761FE0746B7
:102A30000E4694B1012C08BF86F000460DD0194A0D
:102A4000194B022C3846314615D0FDF7D6FC2A46E4
:102A5000BDE8F04D114BFDF7D0BC002213463846BF
:102A60003146FDF735FE04BF0220FFF73BFE384636
:102A70003146BDE8F08DFDF7C0FC2A46BDE8F04DBB
:102A8000064BFDF7BDBC00000000F07F182D44543C
:102A9000FB2109C00A080000FB21F9BFFB21094006
:102AA000FB21F93F075C143326A6A13C2DE9F04138
:102AB00004462046FDF7F8FD21F000460546204675
:102AC000FDF7F2FD07462A463346FDF701FE02D127
:102AD0000120BDE8F0810020FBE770B505460C46FB
:102AE0002846FFF7E3FF06462046FFF7DFFF864252
:102AF00001D1012070BD0020FCE7016881F0004198
:102B0000016070470168002902DA016849420160EA
:102B10007047FEF79BFDFFF709FCFFF7C9F8FEF7CA
:102B200077F8FEF75FFB03E0FDF702FFFDF774FFA8
:102B3000FAE70000000000000000000000000000B4
:102B40000000000000F8000000000000003330002A
:102B5000000000100C06100C060000000000000031
:102B6000000040C07840C0784000043F04043F04A7
:102B70000400007088FC08300000001820FF211EAF
:102B80000000F008F000E018000000211C031E21E6
:102B90001E0000F00888700000001E212324192761
:102BA000211010160E0000000000000000000000C0
:102BB0000000000000E018040200000000071820D8
:102BC000400000020418E000000000402018070048
:102BD0000000404080F0804040000202010F0102EE
:102BE0000200000000F0000000000101011F0101CF
:102BF0000100000000000000000080B07000000034
:102C000000000000000000000000000101010101BF
:102C10000101000000000000000000303000000052
:102C20000000000000008060180400601806010029
:102C3000000000E010080810E000000F1020201035
:102C40000F00001010F8000000000020203F20209E
:102C50000000007008080888700000302824222135
:102C600030000030088888483000001820202011EB
:102C70000E000000C02010F8000000070424243FCC
:102C8000240000F808888808080000192120201175
:102C90000E0000E0108888180000000F112020119D
:102CA0000E0000380808C83808000000003F000087
:102CB00000000070880808887000001C2221212272
:102CC0001C0000E010080810E00000003122221172
:102CD0000F00000000C0C000000000000030300005
:102CE0000000000000800000000000008060000084
:102CF00000000000804020100800000102040810BD
:102D000020004040404040404000040404040404CB
:102D10000400000810204080000000201008040279
:102D20000100007048080808F0000000003036017B
:102D30000000C030C828E810E0000718272423143A
:102D40000B000000C038E0000000203C23020227F6
:102D5000382008F8888888700000203F2020201143
:102D60000E00C0300808080838000718202020107E
:102D7000080008F808080810E000203F2020201074
:102D80000F0008F88888E8081000203F2020232042
:102D9000180008F88888E8081000203F2000030089
:102DA0000000C03008080838000007182020221E44
:102DB000020008F808000008F808203F210101215E
:102DC0003F20000808F8080800000020203F2020CD
:102DD000000000000808F8080800C08080807F001C
:102DE000000008F888C028180800203F2001263875
:102DF000200008F8080000000000203F20202020CC
:102E0000300008F8F800F8F80800203F003F003FC5
:102E1000200008F830C00008F808203F20000718FC
:102E20003F00E01008080810E0000F1020202010DC
:102E30000F0008F808080808F000203F21010101F0
:102E40000000E01008080810E0000F182424385093
:102E50004F0008F8888888887000203F2000030C05
:102E6000302000708808080838000038202121220E
:102E70001C00180808F8080818000000203F20006F
:102E8000000008F808000008F808001F2020202093
:102E90001F000878880000C83808000007380E01B5
:102EA0000000F80800F80008F800033C0700073CA1
:102EB0000300081868808068180820302C03032C51
:102EC00030200838C800C83808000000203F200023
:102ED000000010080808C8380800203826212020E3
:102EE0001800000000FE020202000000007F4040C7
:102EF0004000000C30C00000000000000001063857
:102F0000C00000020202FE000000004040407F00BE
:102F100000000000040202020400000000000000A3
:102F200000000000000000000000808080808080A1
:102F30008080000202040000000000000000000089
:102F400000000000808080800000001924222222DE
:102F50003F2008F8008080000000003F1120201171
:102F60000E000000008080800000000E1120202054
:102F70001100000000808088F800000E1120201051
:102F80003F200000808080800000001F222222223B
:102F90001300008080F0888888180020203F2020BF
:102FA00000000000808080808000006B94949493E7
:102FB000600008F8008080800000203F2100002091
:102FC0003F2000809898000000000020203F202033
:102FD0000000000000809898000000C08080807F82
:102FE000000008F8000080808000203F24022D307F
:102FF0002000000808F8000000000020203F2020EA
:1030000000008080808080808000203F20003F2062
:10301000003F8080008080800000203F2100002051
:103020003F200000808080800000001F20202020A2
:103030001F00808000808000000080FFA120201100
:103040000E000000008080808000000E112020A073
:10305000FF80808080008080800020203F21200031
:10306000010000008080808080000033242424241C
:103070001900008080E0808000000000001F2020F8
:1030800000008080000000808000001F20202010B1
:103090003F20808080000080808000010E30080684
:1030A000010080800080008080800F300C030C3095
:1030B0000F0000808000808080000020312E0E31C3
:1030C0002000808080000080808080818E701806C3
:1030D000010000808080808080000021302C22212F
:1030E000300000000000807C020200000000003F71
:1030F000404000000000FF00000000000000FF0052
:1031000000000002027C800000000040403F000000
:10311000000000060101020204040000000000009B
:1031200000000000000000004FBB610567ACDD3F00
:10313000182D4454FB21E93F9BF681D20B73EF3FDE
:10314000182D4454FB21F93FE2652F227F2B7A3C56
:10315000075C143326A6813CBDCBF07A8807703C0F
:10316000075C143326A6913CC4EB98999999C9BF82
:10317000711623FEC671BCBF6D9A74AFF2B0B3BFB7
:103180009AFDDE522DDEADBF2F6C6A2C44B4A2BF77
:103190000D5555555555D53FFF8300922449C23FE3
:1031A0006E204CC5CD45B73F513DD0A0660DB13F17
:1031B000EB0D76244B7BA93F11DA22E33AAD903F29
:1031C0000000000000000000E831000800000020BE
:1031D00098000000C42600088032000898000020F3
:1031E00020040000D42600080000000001020304AF
:1031F0000102030406070809020406080000000093
:103200000000000000000000000000000000803FFF
:1032100000000000000000000000803F6F12833AB1
:10322000A69B443B0000003F0AD7A33B00000000E0
:10323000000000000000000000000000000000008E
:10324000000000000000000000000000000000007E
:10325000000000000000A042000000000000803FCD
:10326000000000000000000000000000000000005E
:10327000000000000000000000000000000000004E
:04000005080000ED02
:00000001FF
